{"abi":[{"type":"constructor","inputs":[],"stateMutability":"nonpayable"},{"type":"function","name":"balanceOf","inputs":[{"name":"account","type":"address","internalType":"address"},{"name":"id","type":"uint256","internalType":"uint256"}],"outputs":[{"name":"","type":"uint256","internalType":"uint256"}],"stateMutability":"view"},{"type":"function","name":"balanceOfBatch","inputs":[{"name":"accounts","type":"address[]","internalType":"address[]"},{"name":"ids","type":"uint256[]","internalType":"uint256[]"}],"outputs":[{"name":"","type":"uint256[]","internalType":"uint256[]"}],"stateMutability":"view"},{"type":"function","name":"isApprovedForAll","inputs":[{"name":"account","type":"address","internalType":"address"},{"name":"operator","type":"address","internalType":"address"}],"outputs":[{"name":"","type":"bool","internalType":"bool"}],"stateMutability":"view"},{"type":"function","name":"mint","inputs":[{"name":"to","type":"address","internalType":"address"},{"name":"tokenURI","type":"string","internalType":"string"}],"outputs":[{"name":"","type":"uint256","internalType":"uint256"}],"stateMutability":"nonpayable"},{"type":"function","name":"name","inputs":[],"outputs":[{"name":"","type":"string","internalType":"string"}],"stateMutability":"view"},{"type":"function","name":"owner","inputs":[],"outputs":[{"name":"","type":"address","internalType":"address"}],"stateMutability":"view"},{"type":"function","name":"renounceOwnership","inputs":[],"outputs":[],"stateMutability":"nonpayable"},{"type":"function","name":"safeBatchTransferFrom","inputs":[{"name":"from","type":"address","internalType":"address"},{"name":"to","type":"address","internalType":"address"},{"name":"ids","type":"uint256[]","internalType":"uint256[]"},{"name":"values","type":"uint256[]","internalType":"uint256[]"},{"name":"data","type":"bytes","internalType":"bytes"}],"outputs":[],"stateMutability":"nonpayable"},{"type":"function","name":"safeTransferFrom","inputs":[{"name":"from","type":"address","internalType":"address"},{"name":"to","type":"address","internalType":"address"},{"name":"id","type":"uint256","internalType":"uint256"},{"name":"value","type":"uint256","internalType":"uint256"},{"name":"data","type":"bytes","internalType":"bytes"}],"outputs":[],"stateMutability":"nonpayable"},{"type":"function","name":"setApprovalForAll","inputs":[{"name":"operator","type":"address","internalType":"address"},{"name":"approved","type":"bool","internalType":"bool"}],"outputs":[],"stateMutability":"nonpayable"},{"type":"function","name":"supportsInterface","inputs":[{"name":"interfaceId","type":"bytes4","internalType":"bytes4"}],"outputs":[{"name":"","type":"bool","internalType":"bool"}],"stateMutability":"view"},{"type":"function","name":"symbol","inputs":[],"outputs":[{"name":"","type":"string","internalType":"string"}],"stateMutability":"view"},{"type":"function","name":"totalMinted","inputs":[],"outputs":[{"name":"","type":"uint256","internalType":"uint256"}],"stateMutability":"view"},{"type":"function","name":"transferOwnership","inputs":[{"name":"newOwner","type":"address","internalType":"address"}],"outputs":[],"stateMutability":"nonpayable"},{"type":"function","name":"uri","inputs":[{"name":"tokenId","type":"uint256","internalType":"uint256"}],"outputs":[{"name":"","type":"string","internalType":"string"}],"stateMutability":"view"},{"type":"event","name":"ApprovalForAll","inputs":[{"name":"account","type":"address","indexed":true,"internalType":"address"},{"name":"operator","type":"address","indexed":true,"internalType":"address"},{"name":"approved","type":"bool","indexed":false,"internalType":"bool"}],"anonymous":false},{"type":"event","name":"OwnershipTransferred","inputs":[{"name":"previousOwner","type":"address","indexed":true,"internalType":"address"},{"name":"newOwner","type":"address","indexed":true,"internalType":"address"}],"anonymous":false},{"type":"event","name":"TokenMinted","inputs":[{"name":"to","type":"address","indexed":true,"internalType":"address"},{"name":"tokenId","type":"uint256","indexed":true,"internalType":"uint256"},{"name":"tokenURI","type":"string","indexed":false,"internalType":"string"}],"anonymous":false},{"type":"event","name":"TransferBatch","inputs":[{"name":"operator","type":"address","indexed":true,"internalType":"address"},{"name":"from","type":"address","indexed":true,"internalType":"address"},{"name":"to","type":"address","indexed":true,"internalType":"address"},{"name":"ids","type":"uint256[]","indexed":false,"internalType":"uint256[]"},{"name":"values","type":"uint256[]","indexed":false,"internalType":"uint256[]"}],"anonymous":false},{"type":"event","name":"TransferSingle","inputs":[{"name":"operator","type":"address","indexed":true,"internalType":"address"},{"name":"from","type":"address","indexed":true,"internalType":"address"},{"name":"to","type":"address","indexed":true,"internalType":"address"},{"name":"id","type":"uint256","indexed":false,"internalType":"uint256"},{"name":"value","type":"uint256","indexed":false,"internalType":"uint256"}],"anonymous":false},{"type":"event","name":"URI","inputs":[{"name":"value","type":"string","indexed":false,"internalType":"string"},{"name":"id","type":"uint256","indexed":true,"internalType":"uint256"}],"anonymous":false},{"type":"error","name":"ERC1155InsufficientBalance","inputs":[{"name":"sender","type":"address","internalType":"address"},{"name":"balance","type":"uint256","internalType":"uint256"},{"name":"needed","type":"uint256","internalType":"uint256"},{"name":"tokenId","type":"uint256","internalType":"uint256"}]},{"type":"error","name":"ERC1155InvalidApprover","inputs":[{"name":"approver","type":"address","internalType":"address"}]},{"type":"error","name":"ERC1155InvalidArrayLength","inputs":[{"name":"idsLength","type":"uint256","internalType":"uint256"},{"name":"valuesLength","type":"uint256","internalType":"uint256"}]},{"type":"error","name":"ERC1155InvalidOperator","inputs":[{"name":"operator","type":"address","internalType":"address"}]},{"type":"error","name":"ERC1155InvalidReceiver","inputs":[{"name":"receiver","type":"address","internalType":"address"}]},{"type":"error","name":"ERC1155InvalidSender","inputs":[{"name":"sender","type":"address","internalType":"address"}]},{"type":"error","name":"ERC1155MissingApprovalForAll","inputs":[{"name":"operator","type":"address","internalType":"address"},{"name":"owner","type":"address","internalType":"address"}]},{"type":"error","name":"OwnableInvalidOwner","inputs":[{"name":"owner","type":"address","internalType":"address"}]},{"type":"error","name":"OwnableUnauthorizedAccount","inputs":[{"name":"account","type":"address","internalType":"address"}]}],"bytecode":{"object":"0x608060405234801562000010575f80fd5b5060408051602081019091525f815233906200002c816200006d565b506001600160a01b0381166200005b57604051631e4fbdf760e01b81525f600482015260240160405180910390fd5b62000066816200007f565b506200023a565b60026200007b82826200016e565b5050565b600380546001600160a01b038381166001600160a01b0319831681179093556040519116919082907f8be0079c531659141344cd1fd0a4f28419497f9722a3daafe3b4186f6b6457e0905f90a35050565b634e487b7160e01b5f52604160045260245ffd5b600181811c90821680620000f957607f821691505b6020821081036200011857634e487b7160e01b5f52602260045260245ffd5b50919050565b601f8211156200016957805f5260205f20601f840160051c81016020851015620001455750805b601f840160051c820191505b8181101562000166575f815560010162000151565b50505b505050565b81516001600160401b038111156200018a576200018a620000d0565b620001a2816200019b8454620000e4565b846200011e565b602080601f831160018114620001d8575f8415620001c05750858301515b5f19600386901b1c1916600185901b17855562000232565b5f85815260208120601f198616915b828110156200020857888601518255948401946001909101908401620001e7565b50858210156200022657878501515f19600388901b60f8161c191681555b505060018460011b0185555b505050505050565b61152d80620002485f395ff3fe608060405234801561000f575f80fd5b50600436106100ef575f3560e01c80638da5cb5b11610093578063d0def52111610063578063d0def52114610224578063e985e9c514610237578063f242432a14610272578063f2fde38b14610285575f80fd5b80638da5cb5b146101cc57806395d89b41146101e7578063a22cb46514610209578063a2309ff81461021c575f80fd5b80630e89341c116100ce5780630e89341c1461017c5780632eb2c2d61461018f5780634e1273f4146101a4578063715018a6146101c4575f80fd5b8062fdd58e146100f357806301ffc9a71461011957806306fdde031461013c575b5f80fd5b610106610101366004610d3f565b610298565b6040519081526020015b60405180910390f35b61012c610127366004610d7c565b6102bf565b6040519015158152602001610110565b61016f60405180604001604052806014815260200173233934b2b732399037b3102330b931b0b9ba32b960611b81525081565b6040516101109190610de1565b61016f61018a366004610df3565b61030e565b6101a261019d366004610f4a565b6103ad565b005b6101b76101b2366004610fed565b6103cc565b60405161011091906110e1565b6101a261049c565b6003546040516001600160a01b039091168152602001610110565b61016f604051806040016040528060038152602001622327a360e91b81525081565b6101a26102173660046110f3565b6104af565b600454610106565b61010661023236600461112c565b6104be565b61012c6102453660046111a8565b6001600160a01b039182165f90815260016020908152604080832093909416825291909152205460ff1690565b6101a26102803660046111d9565b61055e565b6101a2610293366004611239565b610574565b5f818152602081815260408083206001600160a01b03861684529091529020545b92915050565b5f6001600160e01b03198216636cdb3d1360e11b14806102ef57506001600160e01b031982166303a24d0760e21b145b806102b957506301ffc9a760e01b6001600160e01b03198316146102b9565b5f81815260056020526040902080546060919061032a90611252565b80601f016020809104026020016040519081016040528092919081815260200182805461035690611252565b80156103a15780601f10610378576101008083540402835291602001916103a1565b820191905f5260205f20905b81548152906001019060200180831161038457829003601f168201915b50505050509050919050565b6103b8335b866105b1565b6103c58585858585610629565b5050505050565b606081518351146104025781518351604051635b05999160e01b8152600481019290925260248201526044015b60405180910390fd5b5f835167ffffffffffffffff81111561041d5761041d610e0a565b604051908082528060200260200182016040528015610446578160200160208202803683370190505b5090505f5b84518110156104945760208082028601015161046f90602080840287010151610298565b8282815181106104815761048161128a565b602090810291909101015260010161044b565b509392505050565b6104a4610689565b6104ad5f6106b6565b565b6104ba338383610707565b5050565b5f6104c7610689565b5f60045f81546104d6906112b2565b91829055505f8181526005602052604090209091506104f6848683611313565b506105128582600160405180602001604052805f8152506107c4565b80856001600160a01b03167fdf92894dc4675a7333caa5903b69cf5d8e8ec0d3f361c88207b6688e525703bb868660405161054e9291906113cd565b60405180910390a3949350505050565b610567336103b2565b6103c58585858585610828565b61057c610689565b6001600160a01b0381166105a557604051631e4fbdf760e01b81525f60048201526024016103f9565b6105ae816106b6565b50565b816001600160a01b0316816001600160a01b0316141580156105f857506001600160a01b038082165f9081526001602090815260408083209386168352929052205460ff16155b156104ba5760405163711bec9160e11b81526001600160a01b038084166004830152821660248201526044016103f9565b6001600160a01b03841661065257604051632bfa23e760e11b81525f60048201526024016103f9565b6001600160a01b03851661067a57604051626a0d4560e21b81525f60048201526024016103f9565b6103c5858585858560016108b5565b6003546001600160a01b031633146104ad5760405163118cdaa760e01b81523360048201526024016103f9565b600380546001600160a01b038381166001600160a01b0319831681179093556040519116919082907f8be0079c531659141344cd1fd0a4f28419497f9722a3daafe3b4186f6b6457e0905f90a35050565b6001600160a01b03831661073057604051631f18c42760e11b81525f60048201526024016103f9565b6001600160a01b0382166107585760405162ced3e160e81b81525f60048201526024016103f9565b6001600160a01b038381165f81815260016020908152604080832094871680845294825291829020805460ff191686151590811790915591519182527f17307eab39ab6107e8899845ad3d59bd9653f200f220920489ca2b5937696c31910160405180910390a3505050565b6001600160a01b0384166107ed57604051632bfa23e760e11b81525f60048201526024016103f9565b604080516001808252602082018690528183019081526060820185905260808201909252906108205f87848487846108b5565b505050505050565b6001600160a01b03841661085157604051632bfa23e760e11b81525f60048201526024016103f9565b6001600160a01b03851661087957604051626a0d4560e21b81525f60048201526024016103f9565b604080516001808252602082018690528183019081526060820185905260808201909252906108ac87878484875f6108b5565b50505050505050565b6108c18686868661090d565b6001600160a01b03851615610820573381156108ea576108e5818888888888610b1c565b6108ac565b60208581015190850151610902838a8a85858a610c3d565b505050505050505050565b805182511461093c5781518151604051635b05999160e01b8152600481019290925260248201526044016103f9565b335f5b8351811015610a3e576020818102858101820151908501909101516001600160a01b038816156109f0575f828152602081815260408083206001600160a01b038c168452909152902054818110156109ca576040516303dee4c560e01b81526001600160a01b038a1660048201526024810182905260448101839052606481018490526084016103f9565b5f838152602081815260408083206001600160a01b038d16845290915290209082900390555b6001600160a01b03871615610a34575f828152602081815260408083206001600160a01b038b16845290915281208054839290610a2e9084906113fb565b90915550505b505060010161093f565b508251600103610abe5760208301515f906020840151909150856001600160a01b0316876001600160a01b0316846001600160a01b03167fc3d58168c5ae7397731d063d5bbf3d657854427343f4c083240f7aacaa2d0f628585604051610aaf929190918252602082015260400190565b60405180910390a450506103c5565b836001600160a01b0316856001600160a01b0316826001600160a01b03167f4a39dc06d4c0dbc64b70af90fd698a233a518aa5d07e595d983b8c0526c8f7fb8686604051610b0d92919061140e565b60405180910390a45050505050565b6001600160a01b0384163b156108205760405163bc197c8160e01b81526001600160a01b0385169063bc197c8190610b60908990899088908890889060040161143b565b6020604051808303815f875af1925050508015610b9a575060408051601f3d908101601f19168201909252610b9791810190611498565b60015b610c01573d808015610bc7576040519150601f19603f3d011682016040523d82523d5f602084013e610bcc565b606091505b5080515f03610bf957604051632bfa23e760e11b81526001600160a01b03861660048201526024016103f9565b805160208201fd5b6001600160e01b0319811663bc197c8160e01b146108ac57604051632bfa23e760e11b81526001600160a01b03861660048201526024016103f9565b6001600160a01b0384163b156108205760405163f23a6e6160e01b81526001600160a01b0385169063f23a6e6190610c8190899089908890889088906004016114b3565b6020604051808303815f875af1925050508015610cbb575060408051601f3d908101601f19168201909252610cb891810190611498565b60015b610ce8573d808015610bc7576040519150601f19603f3d011682016040523d82523d5f602084013e610bcc565b6001600160e01b0319811663f23a6e6160e01b146108ac57604051632bfa23e760e11b81526001600160a01b03861660048201526024016103f9565b80356001600160a01b0381168114610d3a575f80fd5b919050565b5f8060408385031215610d50575f80fd5b610d5983610d24565b946020939093013593505050565b6001600160e01b0319811681146105ae575f80fd5b5f60208284031215610d8c575f80fd5b8135610d9781610d67565b9392505050565b5f81518084525f5b81811015610dc257602081850181015186830182015201610da6565b505f602082860101526020601f19601f83011685010191505092915050565b602081525f610d976020830184610d9e565b5f60208284031215610e03575f80fd5b5035919050565b634e487b7160e01b5f52604160045260245ffd5b604051601f8201601f1916810167ffffffffffffffff81118282101715610e4757610e47610e0a565b604052919050565b5f67ffffffffffffffff821115610e6857610e68610e0a565b5060051b60200190565b5f82601f830112610e81575f80fd5b81356020610e96610e9183610e4f565b610e1e565b8083825260208201915060208460051b870101935086841115610eb7575f80fd5b602086015b84811015610ed35780358352918301918301610ebc565b509695505050505050565b5f82601f830112610eed575f80fd5b813567ffffffffffffffff811115610f0757610f07610e0a565b610f1a601f8201601f1916602001610e1e565b818152846020838601011115610f2e575f80fd5b816020850160208301375f918101602001919091529392505050565b5f805f805f60a08688031215610f5e575f80fd5b610f6786610d24565b9450610f7560208701610d24565b9350604086013567ffffffffffffffff80821115610f91575f80fd5b610f9d89838a01610e72565b94506060880135915080821115610fb2575f80fd5b610fbe89838a01610e72565b93506080880135915080821115610fd3575f80fd5b50610fe088828901610ede565b9150509295509295909350565b5f8060408385031215610ffe575f80fd5b823567ffffffffffffffff80821115611015575f80fd5b818501915085601f830112611028575f80fd5b81356020611038610e9183610e4f565b82815260059290921b84018101918181019089841115611056575f80fd5b948201945b8386101561107b5761106c86610d24565b8252948201949082019061105b565b96505086013592505080821115611090575f80fd5b5061109d85828601610e72565b9150509250929050565b5f815180845260208085019450602084015f5b838110156110d6578151875295820195908201906001016110ba565b509495945050505050565b602081525f610d9760208301846110a7565b5f8060408385031215611104575f80fd5b61110d83610d24565b915060208301358015158114611121575f80fd5b809150509250929050565b5f805f6040848603121561113e575f80fd5b61114784610d24565b9250602084013567ffffffffffffffff80821115611163575f80fd5b818601915086601f830112611176575f80fd5b813581811115611184575f80fd5b876020828501011115611195575f80fd5b6020830194508093505050509250925092565b5f80604083850312156111b9575f80fd5b6111c283610d24565b91506111d060208401610d24565b90509250929050565b5f805f805f60a086880312156111ed575f80fd5b6111f686610d24565b945061120460208701610d24565b93506040860135925060608601359150608086013567ffffffffffffffff81111561122d575f80fd5b610fe088828901610ede565b5f60208284031215611249575f80fd5b610d9782610d24565b600181811c9082168061126657607f821691505b60208210810361128457634e487b7160e01b5f52602260045260245ffd5b50919050565b634e487b7160e01b5f52603260045260245ffd5b634e487b7160e01b5f52601160045260245ffd5b5f600182016112c3576112c361129e565b5060010190565b601f82111561130e57805f5260205f20601f840160051c810160208510156112ef5750805b601f840160051c820191505b818110156103c5575f81556001016112fb565b505050565b67ffffffffffffffff83111561132b5761132b610e0a565b61133f836113398354611252565b836112ca565b5f601f841160018114611370575f85156113595750838201355b5f19600387901b1c1916600186901b1783556103c5565b5f83815260208120601f198716915b8281101561139f578685013582556020948501946001909201910161137f565b50868210156113bb575f1960f88860031b161c19848701351681555b505060018560011b0183555050505050565b60208152816020820152818360408301375f818301604090810191909152601f909201601f19160101919050565b808201808211156102b9576102b961129e565b604081525f61142060408301856110a7565b828103602084015261143281856110a7565b95945050505050565b6001600160a01b0386811682528516602082015260a0604082018190525f90611466908301866110a7565b828103606084015261147881866110a7565b9050828103608084015261148c8185610d9e565b98975050505050505050565b5f602082840312156114a8575f80fd5b8151610d9781610d67565b6001600160a01b03868116825285166020820152604081018490526060810183905260a0608082018190525f906114ec90830184610d9e565b97965050505050505056fea264697066735822122062f2cb8ec453ca88fb22a9ce2344e1b90e820eb13b6c6c58c2956675797e9f9864736f6c63430008180033","linkReferences":{}},"methodIdentifiers":{"balanceOf(address,uint256)":"00fdd58e","balanceOfBatch(address[],uint256[])":"4e1273f4","isApprovedForAll(address,address)":"e985e9c5","mint(address,string)":"d0def521","name()":"06fdde03","owner()":"8da5cb5b","renounceOwnership()":"715018a6","safeBatchTransferFrom(address,address,uint256[],uint256[],bytes)":"2eb2c2d6","safeTransferFrom(address,address,uint256,uint256,bytes)":"f242432a","setApprovalForAll(address,bool)":"a22cb465","supportsInterface(bytes4)":"01ffc9a7","symbol()":"95d89b41","totalMinted()":"a2309ff8","transferOwnership(address)":"f2fde38b","uri(uint256)":"0e89341c"},"id":36}